:020000040000FA
:06000000DEEF01F012002A
:020006000000F8
:08000800D9CFE6FFE1CFD9FFDB
:10001000020EE126FD0EDBCF02F0FE0EDBCF03F079
:10002000033404E202500008000E035420E2E90EFB
:10003000E66E030EE66E25D8E552E552DE6ADD6A0D
:10004000DECF02F0DDCF03F0D890035004E63C0E83
:10005000025C000E035805E2DF2A010E01E3DB2AF1
:10006000EFD7FD0EDB06FE0E01E2DB06D3D7020E54
:10007000E15C02E2E16AE552E16EE552E7CFD9FFC9
:100080001200D9CFE6FFE1CFD9FF020EE126FD0E27
:10009000DBCF02F0FE0EDBCF03F0033404E20250AC
:1000A0000008000E035416E2DE6ADD6ADECF02F0BD
:1000B000DDCF03F0830E025C000E035805E2DF2A59
:1000C000010E01E3DB2AF2D7FD0EDB06FE0E01E294
:1000D000DB06DDD7020EE15C02E2E16AE552E16E89
:1000E000E552E7CFD9FF1200D9CFE6FFE1CFD9FF24
:1000F000D950FD0FE96EFF0EDA20EA6E040EEE18FD
:1001000001E1ED5021E1010EE66EE66A7DDFE55288
:10011000E552200EE66E39D8E552200EE66E35D84F
:10012000E552800EE66E31D8E552E66A2ED8E552E9
:10013000E00EE66E2AD8E552E66A27D8E552100EA0
:10014000E66E23D8E5521DD0D950FD0FE96EFF0EA3
:10015000DA20EA6E080EEE1801E1ED5012E1010E10
:10016000E66EE66A51DFE552E552380EE66E0DD8CE
:10017000E5520E0EE66E09D8E552010EE66E05D880
:10018000E552E552E7CFD9FF1200D9CFE6FFE1CF24
:10019000D9FF8B9A8B9C8B9EFE0EDB508C6E8B8EC8
:1001A0008B9E020EE66EE66A6CDFE552E552E55282
:1001B000E7CFD9FF1200D9CFE6FFE1CFD9FF8B9A65
:1001C0008B9C8B9EFE0EDB508C6E8B8E8B9E020E5C
:1001D000E66EE66A56DFE552E552FE0EDB50100D84
:1001E000FE0EF3CFDBFF8B9A8B9C8B9EDB508C6ECD
:1001F0008B8E8B9E020EE66EE66A43DFE552E55279
:10020000E552E7CFD9FF1200D9CFE6FFE1CFD9FF02
:100210008B8A8B9C8B9EFE0EDB508C6E8B8E8B9E06
:10022000020EE66EE66A2DDFE552E552E552E7CFB3
:10023000D9FF1200D9CFE6FFE1CFD9FF8B8A8B9C83
:100240008B9EFE0EDB508C6E8B8E8B9E020EE66EAE
:10025000E66A17DFE552E552FE0EDB50100DFE0E8A
:10026000F3CFDBFF8B8A8B9C8B9EDB508C6E8B8E4F
:100270008B9E020EE66EE66A04DFE552E552E55219
:10028000E7CFD9FF12008B9A8B9C8B9E010E8C6E50
:100290008B8E8B9EE66EE66AF4DEE552E552120026
:1002A000949A949C949E956A040EE66EE66A1CDF0E
:1002B000E552E552C00EE66E7EDFE552540EE66E64
:1002C000B9DFE552480EE66EB5DFE552490EE66E3F
:1002D000B1DFE552410EE66EADDFE552470EE66E48
:1002E000A9DFE5524F0EE66EA5DFE552010EE66E80
:0E02F000E66A8ADEE552E552DDD700D0120044
:0202FE00060EEA
:10030000F66E000EF76E000EF86E00010900F55053
:10031000856F0900F550866F03E1856701D03DD0F8
:100320000900F550806F0900F550816F0900F55004
:10033000826F09000900F550E96E0900F550EA6E78
:10034000090009000900F550836F0900F550846F1A
:1003500009000900F6CF87F0F7CF88F0F8CF89F0D1
:1003600080C0F6FF81C0F7FF82C0F8FF0001835311
:1003700002E1845307E00900F550EE6E8307F8E2CE
:100380008407F9D787C0F6FF88C0F7FF89C0F8FF58
:0C03900000018507000E865BBFD712003D
:04039C00000EF36EEE
:1003A00000EE00F0060E01D81200EA6002D0EE6AFC
:0C03B000FCD7F350E9601200EE6AFCD7A5
:0403BC0015EE00F04A
:1003C00025EE00F0F86A019C7FEC01F0ECEC01F006
:0803D00050EC01F0FBD7120014
:0203D800120011
:00000001FF
